:03000000020D4CA2
:0C0D4C00787FE4F6D8FD758171020D93EC
:100595002D2D2D2D2D002D2D2D2D2D0D0A004F4BE3
:1005A5000041540D0A0041542B4950523D39363013
:1005B500300D0A00415426570D0A0041542B51496C
:1005C500484541443D300D0A0041542B4350494EA6
:1005D5003F0D0A0041542B51434349440D0A004144
:1005E500542B435245473F0D0A002B435245473A8A
:1005F50020302C300041542B43475245473F0D0ACC
:10060500002B43475245473A20302C300041542BAC
:1006150051494647434E543D300D0A0041542B5134
:1006250049435347503D312C22434D4E4554220DED
:100635000A0041542B51495245474150500D0A007B
:1006450041542B514944454143540D0A0041542B13
:1006550051494143540D0A0041542B51494C4F43D4
:1006650049500D0A0041542B51494C4F4349500004
:1006750031302E0041542B5149444E5349503D30A1
:100685000D0A0041542B5149444E5349503D310DFB
:100695000A0041542B5153434C4B3D300D0A004148
:1006A500542B51495344453D300D0A0041542B51BB
:1006B500494F50454E3D22544350222C226B3171F7
:1006C500373333383634352E6961736B2E696E22B4
:1006D5002C223330313632220D0A0041542B514938
:1006E5004F50454E3D22544350222C223232322E59
:1006F50037362E3135312E3636222C2236393030EA
:10070500220D0A00434F4E4E454354204F4B0043A4
:100715004F4E4E454354204F4B0D0A004552524F04
:10072500520041542B51494D55583F0D0A00415433
:100735002B5149535441540D0A002B51494D5558DD
:100745003A20310041542B51494D55583D300D0A41
:1007550000495020494E4954414C004950205354BA
:100765004154555300495020434C4F534500544381
:100775005020434F4E4E454354494E470041542B5C
:100785005149434C4F53450D0A00414C5245414494
:100795005920434F4E4E45435400434F4E4E45431B
:1007A50054204641494C0041542B514953454E4430
:1007B5003D32310D0A0041542B514953454E443DBC
:1007C500380D0A003E0053454E44204F4B00111A88
:1007D5001E3134424B1317232A3B404931323334FF
:100331005A00004943434944000000000000000006
:100341000000000000000000000000000002620048
:1003510000612C005A0000000000000000000000B5
:10036100000000000000000000000000000000008C
:10037100000000000000000000000000000000007C
:10038100000000000000000000000000000000006C
:10039100000000000000000000000000000000005C
:1003A100000000000000000000000000000000004C
:1003B100000000000000000000000000000000003C
:1003C100000000000000000000000000000000002C
:1003D100000000000000000000000000000000001C
:1003E100000000000000000000000000000000000C
:1003F10000000000000000000000000000000000FC
:1004010000000000000000000000000000000000EB
:1004110000000000000000000000000000000000DB
:1004210000000000000000000000000000000000CB
:1004310000000000000000000000000000000000BB
:1004410000000000000000000000000000000000AB
:10045100000000000000000000000000000000009B
:10046100000000000000000000000000000000008B
:10047100000000000000000000000000000000007B
:100481000002580000015E000155000154000161A5
:1004910000016A00016700015A00015F000152007A
:1004A100016900015B00016D000170000153000151
:1004B1005D00017105015100015C00016E000166E2
:1004C10000016800015000016C00016B00016F0028
:1004D100C100C103C101C102C104C105025600002E
:1004E10002640000021000000212000001600060BE
:1004F1003201B8FE0102FE00000000000000000011
:1005010000000000000000000000000000000000EA
:1005110000000000000000000000000000000000DA
:10052100000000000060320028FE0102FE00000011
:1005310000000000000000000000000000000000BA
:1005410000000000000000000000000000000000AA
:10055100000000000000000000000060320186FE83
:10056100000000000000000000000000000000008A
:10057100000000000000000000000000000000007A
:10058100000000000000000000000000000000006A
:0305910000C106A0
:04111B00AB07AA066E
:10111F00AF02AE0375C78375C5028FC38EC48DC270
:0B112F00C2AF75C65A75C6A500D2AF4E
:01113A002292
:04117B00AD07AC060A
:10117F00AF04AE0575C78375C5038FC38EC4C2AFE9
:09118F0075C65A75C6A500D2AF61
:011198002234
:04113B00AD07AC064A
:10113F00AF04AE0575C78375C5018FC38EC4C2AF2B
:0B114F0075C65A75C6A500AFC2D2AF2E
:01115A002272
:1010B200E4FDFCC3ED9FEC9E50070DBD00010C80CA
:1010C200F2E4FCFDC3ED9FEC9E50070DBD00010C48
:0210D20080F2AA
:0110D40022F9
:071062007FE87E0312106914
:1010690075C13EE4FDFCC3ED9FEC9E5015E4FBFA0F
:101079000BBB00010ABA03F8BBE8F50DBD00010C72
:0210890080E401
:01108B002242
:02115B008F3FC4
:10115D00E4F540E540C3953F5013E4F912106212D7
:0D116D00106975C13E09B914F3054080E614
:01117A002252
:10100200E4FFEFC39563E49562501B745A2FF58297
:10101200E43400F583E4F074282FF582E43400F51B
:1010220083E4F00F80DCE4F562F5637810F608F6ED
:01103200229B
:100FC700C2A77FE87E0312106975C13ED2A712102F
:100FD7006912106912106975C13E12106912106901
:100FE70075C13EC2A712106912106975C13E121071
:0B0FF7006975C13E12106975C13E22F1
:080003008F993099FDC299228A
:10000E00120F81FF600C120003740129F9E43AFA11
:02001E0080EE72
:0100200022BD
:0610D5008B218A22892311
:1010DB00E4FEEEC39D5015AB21AA22A9238E827587
:0C10EB008300120F9AFF1200030E80E633
:0110F70022D6
:0B11C3008F9BE59A30E1FB539AFD2260
:09002600121002AB3FAA40A941EF
:10002F00120F81FF600C1211C3740129F9E43AFA1F
:02003F0080EE51
:01004100229C
:0610F8008B3D8A3E893F9A
:1010FE00E4FEEEC39D5015AB3DAA3EA93F8E827510
:0C110E008300120F9AFF1211C30E80E63E
:01111A0022B2
:03000B00020BF6EF
:100BF600C0E0C0D0055B30031D0557E55770020500
:100C060056C39414E5569400400CC20375560075FD
:100C16005700D200D20630051B0565E56570020552
:100C260064C39414E5649400400AC20575640075B3
:100C36006500D204D3E5599400E55894004008E5D0
:100C460059155970021558E56BB4010C756B007592
:100C56005B00756D00757000E5506401600AE56B18
:100C66007041E56C6401703BE55BC39464403D757F
:100C76005B00056DE56D943C4032756D000570E5D1
:100C860070B4020DE550B40108757000755000800F
:100C96000DE570B40316E56B7012F570F56B43C77E
:100CA600208009755B00756D00757000D0D0D0E0AE
:010CB600320B
:03002300020ECDFD
:100ECD00C0E0C083C082C0D075D008309845C298AC
:100EDD007812E6FE08E6FF24B8F58274013EF5832C
:100EED00E599F074862FF58274013EF583E599F04E
:100EFD0006E618700106D203B2B475560075570098
:100F0D00D37813E6942C18E6940140097600087600
:0E0F1D00008002C299D0D0D082D083D0E032C2
:03004300020E5A50
:100E5A00C0E0C083C082C0D075D008E59A30E05A9D
:100E6A00539AFE7810E6FE08E62428F58274003EBE
:100E7A00F583E59BF006E618700106745A2563F5BA
:100E8A008274003562F583E59BF00563E5637002C1
:100E9A000562D205756400756500D3942CE56294E9
:100EAA00014006756200756300D37811E6942C1828
:100EBA00E6940140057600087600D0D0D082D0832F
:030ECA00D0E03243
:10108C00759850538EBF538EFE53890F758BE87530
:10109C008DFFC2ABD28E759A50438E0475D7E07516
:0610AC00D6FE438E102267
:1011B200538E7F5389F0E4F58A758CDCC28DD28C14
:0111C200220A
:080CB7007BFF7A067945C207B4
:060CBF008B3F8A408941D1
:100CC500E4F542F543120026C2047558077559D05C
:100CD5007FC87E00121069E543C39402505E75C15A
:100CE5003E200406E559455870EDC20490005AE0CF
:100CF500601B7BFF7A05799512000E7B017A0079DE
:100D05005A12000E7BFF7A05799B12000E7547FF7C
:100D15007548057549A37B017A00795A120DD8E902
:100D25004A4B60057542018013E559455870A81274
:100D350000267558077559D00543809BC2042007C6
:060D450003121002AF4290
:010D4B002285
:10004600E4F53DF53EE55E75F00584AFF012115B13
:10005600055EE55EC394054006E4F55E43C7207B76
:10006600FF7A0579A6C207120CBF8F3D7BFF7A0582
:1000760079A6C207120CBF8F3DE53D600D7BFF7A66
:100086000579ABC207120CBF8F3D7F647E0012104C
:1000960069E53D600D7BFF7A0579B9C207120CBF91
:1000A6008F3D7F647E00121069E53D600D7BFF7A0F
:1000B6000579C0C207120CBF8F3D7F647E00121007
:1000C60069E53D601F7BFF7A0579CEC207120CBF3A
:1000D6008F3DEF700F0555E555C3940540E7E4F5F0
:1000E6005502004B7F647E00121069E53D604BE4CB
:1000F600F5557BFF7A0579D9D207120CBFEF700E42
:100106000555E555C3940340E9E4F555802CE4F51F
:100116003E7465253EF582E43400F583E0FF740500
:10012600253EF582E43400F583EFF0053EE53EB466
:1001360014DFE4900019F0121002E53D60417BFFE8
:100146007A0579E4C207120CBF8F3DEF700B055498
:10015600E554C3940640E780207547FF754805754A
:1001660049EF7B017A00795A120DD8E94A4B600FA4
:100176000554E554C3940640C5E4F55402004B7F8C
:10018600647E00121069E53D603C7BFF7A0579FAD2
:10019600C207120CBFEF700B0554E554C39406401A
:1001A600E980207547FF7548067549067B017A0088
:1001B600795A120DD8E94A4B600C0554E554C3949C
:1001C6000640C7E4F5547F147E00121069E53D60D1
:1001D6000D7BFF7A067912C207120CBF8F3DE53DF3
:1001E600600D7BFF7A067921C207120CBF8F3D7F17
:1001F600147E00121069E53D60227BFF7A0679378E
:10020600D207120CBF8F3DEF70120561E561C394F2
:100216000C40E7E4F561120CB702004B7FC87E0084
:10022600121069E53D60607BFF7A067952C20712BB
:100236000CBF8F3DEF7050056A7FE87E0312106990
:10024600E56AC394024033E56A9404502D7BFF7A35
:10025600067945D207120CBF12106275C13E121004
:100266006912106912106975C13E7BFF7A067937EB
:10027600D207120CBF12106280ADE56AC394044027
:10028600A6E4F56A02004BE53D605A1210027BFFB8
:100296007A06795D12002F121062C20075C13E7592
:1002A60047FF75480675496A7B017A00795A120D2F
:1002B600D8E94A4B6005121002802A05677547FF88
:1002C6007548067549757B017A00795A120DD8E989
:1002D6004A4B7011E567C3940540B0E4F567120C0C
:1002E600B7EF02004BE53D600D7BFF7A067988C2C9
:1002F60007120CBF8F3D7FC87E00121069E53D6076
:100306000D7BFF7A067997C207120CBF8F3D7FC817
:100316007E00121069E53D600D7BFF7A0679A4C266
:0A03260007120CBF8F3DAF3D7E00B3
:0103300022AA
:1007E500E4F53D1210027BFF7A0679B112002F1253
:1007F5001062C20075C13E7547FF75480775490906
:100805007B017A00795A120DD8E94A4B60157BFFB6
:100815007A07791412000E121002E4F55A753D019B
:100825000209727547FF7548077549217B017A00F2
:10083500795A120DD8E94A4B70030209007BFF7AF9
:10084500077927D207120CBF7FC87E001210697B7B
:10085500FF7A077933D207120CBF7547FF75480732
:1008650075493F7B017A00795A120DD8E94A4B60E8
:10087500167BFF7A077949C207120CBF7BFF7A07FF
:100885007933D207120CBF7547FF7548077549566E
:100895007B017A00795A120DD8E94A4B60030209A7
:1008A500607547FF7548077549607B017A00795A7D
:1008B500120DD8E94A4B60030209607547FF754878
:1008C5000775496A7B017A00795A120DD8E94A4BB6
:1008D50060030209607547FF7548077549737B0119
:1008E5007A00795A120DD8E94A4B60028024120C1D
:1008F500B77FE87E031210690209727547FF7548D4
:100905000775498F7B017A00795A120DD8E94A4B50
:1009150060047BFF80307547FF75480775499F7BED
:10092500017A00795A120DD8E94A4B602E7547FFB6
:100935007548077549737B017A00795A120DD8E914
:100945004A4B7BFF600B7A077982C207120CBF8086
:100955000A120CB97FE87E03121069055AE55AC3DD
:10096500940550030207E8E4F55A120CB7853D6C6F
:02097500AF3D94
:01097700225D
:0A0978008B218A2289238C248D250F
:10098200752601755001E4F560AF60EF3395E0FE26
:10099200C3EF9525EE95245019AB21AA22A9238FE6
:1009A200828E83120F9AFF74272560F8A6070560CE
:1009B20080D774272525F8E4F6C200E56870597BD4
:1009C200FF7A077933D207120CBF7FC87E0012105C
:1009D200697547FF7548077549097B017A00795A9D
:1009E200120DD8E94A4B70307547FF7548077549B3
:1009F200737B017A00795A120DD8E94A4B701912A9
:100A020007E5EF700512004680F5E4F55E7BFF7A9C
:100A1200077933D207120CBF7FC87E0012106975A6
:100A220047FF7548077549097B017A00795A120D0B
:100A3200D8E94A4B701A7547FF7548077549737BA9
:100A4200017A00795A120DD8E94A4B7003020AD68C
:100A5200E5687032E5256415452470087BFF7A0746
:100A620079AC800EE52564084524700B7BFF7A077C
:100A720079BB12002F8005E4F526806B7F2C7E0166
:100A82001210697568017547FF7548077549C97B7A
:100A9200017A00795A120DD8E94A4B70030209BB58
:100AA2007B007A007927AD251210F8E4F5687F2CD7
:100AB2007E011210697547FF7548077549CB7B01A6
:100AC2007A00795A120DD8E94A4B601B75690112F6
:100AD200100280130552E552C3940250030209BB6F
:0C0AE200E4F552F526F568E4F550AF2667
:010AEE0022E5
:100F2B00E4F521E5219007DA93FF741A2521F58268
:100F3B00E43400F583E0FD8FF0A47C002DFFEC354D
:100F4B00F0FE74212521F582E43400F583EFF07473
:100F5B00212521F582E43400F583C083C082E0FDB6
:100F6B00E5219007D393FCED6CD082D083F0052163
:050F7B00E521B407AE02
:010F8000224E
:10119900E4FBEBFF7E0012113B24EAF582E4340103
:0811A900F583EFF00BBB07EA30
:0111B100221B
:101033007FF97E1FE4FD8F828E83E493FC74212D60
:10104300F8A60474212DF8E6FC741A2DF582E43415
:0E10530000F583ECF00FBF00010E0DBD07D8B5
:01106100226C
:100AEF00E4F595759680F5C975CA10D2B4C2CC12CB
:100AFF001033120F2B1211997FC87E00121069123A
:100B0F00108C1211B2C2A71210697FE87E03121067
:100B1F0069D2A7121069121069121069C2A7D2A95F
:100B2F00D2AC43AF01D2AF12106912106912004656
:100B3F00EF4E700343C7201207E57B017A0079005F
:100B4F0012000E755D0175C13E7F647E0012106943
:100B5F003004187B017A0079287811E6FD1210D540
:100B6F00E47810F608F6C204756B013006D87813D6
:100B7F00E6F56F7B017A017986FD7C001209787F9B
:100B8F00C87E001210697812E6FC08E6FD656F70EA
:100B9F0001EC60167486256FF9E43401FA7B01C30A
:100BAF00ED956FFDEC9EFC120978E4F5607813E685
:100BBF002401FF18E436FEAD60ED3395E0FCC3ED84
:100BCF009FEC9E5017AF60EF3395E0FE74862FF5C4
:100BDF008274013EF583E4F0056080D1E47812F66B
:070BEF0008F6C206020B55D7
:100D5800020AEFE493A3F8E493A34003F68001F2B8
:100D680008DFF48029E493A3F85407240CC8C3339C
:100D7800C4540F4420C8834004F456800146F6DF6B
:100D8800E4800B0102040810204080900331E47EC7
:100D9800019360BCA3FF543F30E509541FFEE49360
:100DA800A360010ECF54C025E060A840B8E493A327
:100DB800FAE493A3F8E493A3C8C582C8CAC583CA52
:100DC800F0A3C8C582C8CAC583CADFE9DEE780BE0A
:010594000066
:100F8100BB010689828A83E0225002E722BBFE026E
:090F9100E32289828A83E49322A1
:100F9A00BB010CE58229F582E5833AF583E022500C
:100FAA0006E92582F8E622BBFE06E92582F8E22256
:0D0FBA00E58229F582E5833AF583E4932270
:100DD8008B448A458946AB47AA48A949120F8160C6
:100DE80063AB44AA45A946120F81605F85474A85CF
:100DF800484B85494C8B4D8A4E894FAB4AAA4BA923
:100E08004C120F81FF6023AB4DAA4EA94F120F81E0
:100E18006F701704254CF54CE4354BF54B740125E0
:100E28004FF54FE4354EF54E80D1AB4AAA4BA94C4D
:100E3800120F817002800D74012546F546E4354590
:100E4800F545809DAB44AA45A946227B007A0079E6
:020E5800002276
:00000001FF
