:03000000020CA946
:0C0CA900787FE4F6D8FD758171020CF034
:100595004F4B0041540D0A0041542B4950523D39EF
:1005A5003630300D0A00415426570D0A0041542BB0
:1005B5005149484541443D300D0A0041542B4350B3
:1005C500494E3F0D0A0041542B51434349440D0AFE
:1005D5000041542B435245473F0D0A002B435245DA
:1005E500473A20302C300041542B43475245473F72
:1005F5000D0A002B43475245473A20302C30004125
:10060500542B51494647434E543D300D0A00415441
:100615002B5149435347503D312C22434D4E4554B0
:10062500220D0A0041542B51495245474150500D66
:100635000A0041542B514944454143540D0A004198
:10064500542B51494143540D0A0041542B51494CF7
:100655004F4349500D0A0041542B51494C4F4349D2
:10066500500031302E0041542B5149444E534950CE
:100675003D300D0A0041542B5149444E5349503DDC
:10068500310D0A0041542B5153434C4B3D300D0A5B
:100695000041542B51495344453D300D0A00415406
:1006A5002B51494F50454E3D22544350222C226B2D
:1006B5003171373333383634352E6961736B2E69B2
:1006C5006E222C223330313632220D0A0041542B52
:1006D50051494F50454E3D22544350222C2232322F
:1006E500322E37362E3135312E3636222C223639FA
:1006F5003030220D0A00434F4E4E454354204F4B98
:1007050000434F4E4E454354204F4B0D0A00455272
:10071500524F520041542B51494D55583F0D0A0037
:1007250041542B5149535441540D0A002B51494D05
:1007350055583A20310041542B51494D55583D30BB
:100745000D0A00495020494E4954414C004950205A
:1007550053544154555300495020434C4F53450081
:1007650054435020434F4E4E454354494E47004154
:10077500542B5149434C4F53450D0A00414C5245AA
:1007850041445920434F4E4E45435400434F4E4E2E
:10079500454354204641494C0041542B514953454A
:1007A5004E443D32310D0A0041542B514953454EBB
:1007B500443D380D0A003E0053454E44204F4B0042
:1007C500111A1E3134424B1317232A3B404931324B
:0207D5003334BB
:100331005A00004943434944000000000000000006
:100341000000000000000000000000000002620048
:1003510000612C005A0000000000000000000000B5
:10036100000000000000000000000000000000008C
:10037100000000000000000000000000000000007C
:10038100000000000000000000000000000000006C
:10039100000000000000000000000000000000005C
:1003A100000000000000000000000000000000004C
:1003B100000000000000000000000000000000003C
:1003C100000000000000000000000000000000002C
:1003D100000000000000000000000000000000001C
:1003E100000000000000000000000000000000000C
:1003F10000000000000000000000000000000000FC
:1004010000000000000000000000000000000000EB
:1004110000000000000000000000000000000000DB
:1004210000000000000000000000000000000000CB
:1004310000000000000000000000000000000000BB
:1004410000000000000000000000000000000000AB
:10045100000000000000000000000000000000009B
:10046100000000000000000000000000000000008B
:10047100000000000000000000000000000000007B
:100481000002580000015E000155000154000161A5
:1004910000016A00016700015A00015F000152007A
:1004A100016900015B00016D000170000153000151
:1004B1005D00017105015100015C00016E000166E2
:1004C10000016800015000016C00016B00016F0028
:1004D100C100C103C101C102C104C105025600002E
:1004E10002640000021000000212000001600060BE
:1004F1003201B8FE0102FE00000000000000000011
:1005010000000000000000000000000000000000EA
:1005110000000000000000000000000000000000DA
:10052100000000000060320028FE0102FE00000011
:1005310000000000000000000000000000000000BA
:1005410000000000000000000000000000000000AA
:10055100000000000000000000000060320186FE83
:10056100000000000000000000000000000000008A
:10057100000000000000000000000000000000007A
:10058100000000000000000000000000000000006A
:0305910000C106A0
:0410EC00AB07AA069E
:1010F000AF02AE0375C78375C5028FC38EC48DC2A0
:0B110000C2AF75C65A75C6A500D2AF7D
:01110B0022C1
:04114C00AD07AC0639
:10115000AF04AE0575C78375C5038FC38EC4C2AF18
:0911600075C65A75C6A500D2AF90
:011169002263
:04110C00AD07AC0679
:10111000AF04AE0575C78375C5018FC38EC4C2AF5A
:0B11200075C65A75C6A500AFC2D2AF5D
:01112B0022A1
:10108300E4FDFCC3ED9FEC9E50070DBD00010C80F9
:10109300F2E4FCFDC3ED9FEC9E50070DBD00010C77
:0210A30080F2D9
:0110A5002228
:071033007FE87E0312103A72
:10103A0075C13EE4FDFCC3ED9FEC9E5015E4FBFA3E
:10104A000BBB00010ABA03F8BBE8F50DBD00010CA1
:02105A0080E430
:01105C002271
:02112C008F3FF3
:10112E00E4F540E540C3953F5013E4F91210331235
:0D113E00103A75C13E09B914F3054080E672
:01114B002281
:100FD300E4FFEFC39563E49562501B745A2FF582C7
:100FE300E43400F583E4F074282FF582E43400F54B
:100FF30083E4F00F80DCE4F562F5637810F608F61D
:0110030022CA
:100F9800C2A77FE87E0312103A75C13ED2A712108D
:100FA8003A12103A12103A75C13E12103A12103A1B
:100FB80075C13EC2A712103A12103A75C13E1210FE
:0B0FC8003A75C13E12103A75C13E227E
:080003008F993099FDC299228A
:10000E00120F52FF600C120003740129F9E43AFA40
:02001E0080EE72
:0100200022BD
:0610A6008B218A22892340
:1010AC00E4FEEEC39D5015AB21AA22A9238E8275B6
:0C10BC008300120F6BFF1200030E80E691
:0110C8002205
:0B1194008F9BE59A30E1FB539AFD228F
:09002600120FD3AB3FAA40A9411F
:10002F00120F52FF600C121194740129F9E43AFA7D
:02003F0080EE51
:01004100229C
:0610C9008B3D8A3E893FC9
:1010CF00E4FEEEC39D5015AB3DAA3EA93F8E82753F
:0C10DF008300120F6BFF1211940E80E6CC
:0110EB0022E2
:03000B00020BE8FD
:100BE800C0E0C0D0055B30031D0557E5577002050E
:100BF80056C39414E5569400400CC203755600750C
:100C08005700D200D20630051B0565E56570020560
:100C180064C39414E5649400400AC20575640075C1
:100C28006500D204D3E5599400E55894004008E5DE
:100C380059155970021558E56BB4010C756B0075A0
:100C48005B00756D00757000E5506401600AE56B26
:100C58007041E56C6401703BE55BC39464403D758D
:100C68005B00056DE56D943C4032756D000570E5DF
:100C780070B4020DE550B40108757000755000801D
:100C88000DE570B40316E56B7012F570F56B43C78C
:100C9800208009755B00756D00757000D0D0D0E0BC
:010CA8003219
:03002300020E9E2C
:100E9E00C0E0C083C082C0D075D008309845C298DB
:100EAE007812E6FE08E6FF24B8F58274013EF5835B
:100EBE00E599F074862FF58274013EF583E599F07D
:100ECE0006E618700106D203B2B4755600755700C7
:100EDE00D37813E6942C18E6940140097600087630
:0E0EEE00008002C299D0D0D082D083D0E032F2
:03004300020E2B7F
:100E2B00C0E0C083C082C0D075D008E59A30E05ACC
:100E3B00539AFE7810E6FE08E62428F58274003EED
:100E4B00F583E59BF006E618700106745A2563F5E9
:100E5B008274003562F583E59BF00563E5637002F0
:100E6B000562D205756400756500D3942CE5629418
:100E7B00014006756200756300D37811E6942C1857
:100E8B00E6940140057600087600D0D0D082D0835E
:030E9B00D0E03272
:10105D00759850538EBF538EFE53890F758BE8755F
:10106D008DFFC2ABD28E759A50438E0475D7E07545
:06107D00D6FE438E102296
:10118300538E7F5389F0E4F58A758CDCC28DD28C43
:011193002239
:080DB7007BFF7A067937C207C1
:060DBF008B3F8A408941D0
:100DC500E4F542F543120026C2047558077559D05B
:100DD5007FC87E0012103AE543C39402503D75C1A9
:100DE5003E200406E559455870EDC2047547FF7568
:100DF50048057549957B017A00795A120D35E94AFE
:100E05004B60057542018013E559455870C91200BC
:100E1500267558077559D0054380BCC204200703C1
:050E2500120FD3AF42E3
:010E2A0022A5
:10004600E4F53DF53EE55E75F00584AFF012112C42
:10005600055EE55EC394054006E4F55E43C7207B76
:10006600FF7A057998C207120DBF8F3D7BFF7A058F
:100076007998C207120DBF8F3DE53D600D7BFF7A73
:1000860005799DC207120DBF8F3D7F647E00121059
:100096003AE53D600D7BFF7A0579ABC207120DBFCD
:1000A6008F3D7F647E0012103AE53D600D7BFF7A3E
:1000B6000579B2C207120DBF8F3D7F647E00121014
:1000C6003AE53D601F7BFF7A0579C0C207120DBF76
:1000D6008F3DEF700F0555E555C3940540E7E4F5F0
:1000E6005502004B7F647E0012103AE53D604BE4FA
:1000F600F5557BFF7A0579CBD207120DBFEF700E4F
:100106000555E555C3940340E9E4F555802CE4F51F
:100116003E7465253EF582E43400F583E0FF740500
:10012600253EF582E43400F583EFF0053EE53EB466
:1001360014DFE4900019F0120FD3E53D60417BFF18
:100146007A0579D6C207120DBF8F3DEF700B0554A5
:10015600E554C3940640E780207547FF754805754A
:1001660049E17B017A00795A120D35E94A4B600F55
:100176000554E554C3940640C5E4F55402004B7F8C
:10018600647E0012103AE53D603C7BFF7A0579EC0F
:10019600C207120DBFEF700B0554E554C394064019
:1001A600E980207547FF7548057549F87B017A0097
:1001B600795A120D35E94A4B600C0554E554C3943F
:1001C6000640C7E4F5547F147E0012103AE53D6000
:1001D6000D7BFF7A067904C207120DBF8F3DE53D00
:1001E600600D7BFF7A067913C207120DBF8F3D7F24
:1001F600147E0012103AE53D60227BFF7A067929CB
:10020600D207120DBF8F3DEF70120561E561C394F1
:100216000C40E7E4F561120DB702004B7FC87E0083
:1002260012103AE53D60607BFF7A067944C20712F8
:100236000DBF8F3DEF7050056A7FE87E0312103ABE
:10024600E56AC394024033E56A9404502D7BFF7A35
:10025600067937D207120DBF12103375C13E121040
:100266003A12103A12103A75C13E7BFF7A06792986
:10027600D207120DBF12103380ADE56AC394044055
:10028600A6E4F56A02004BE53D605A120FD37BFFE8
:100296007A06794F12002F121033C20075C13E75CF
:1002A60047FF75480675495C7B017A00795A120D3D
:1002B60035E94A4B6005120FD3802A05677547FF5B
:1002C6007548067549677B017A00795A120D35E93A
:1002D6004A4B7011E567C3940540B0E4F567120D0B
:1002E600B7EF02004BE53D600D7BFF7A06796BC2E6
:1002F60007120DBF8F3D7FC87E0012103AE53D60A4
:100306000D7BFF7A067989C207120DBF8F3D7FC824
:100316007E0012103AE53D600D7BFF7A067996C2A3
:0A03260007120DBF8F3DAF3D7E00B2
:0103300022AA
:1007D700E4F53D120FD37BFF7A0679D212002F1270
:1007E7001033C20075C13E7547FF7548067549FB52
:1007F7007B017A00795A120D35E94A4B60157BFF68
:100807007A07790612000E120FD3E4F55A753D01E7
:100817000209647547FF7548077549137B017A001C
:10082700795A120D35E94A4B70030208F27BFF7AB9
:10083700077919D207120DBF7FC87E0012103A7BC5
:10084700FF7A077925D207120DBF7547FF7548074D
:100857007549317B017A00795A120D35E94A4B60A7
:10086700167BFF7A07793BC207120DBF7BFF7A071A
:100877007925D207120DBF7547FF75480775494897
:100887007B017A00795A120D35E94A4B6003020958
:10089700527547FF7548077549527B017A00795AA7
:1008A700120D35E94A4B60030209527547FF754837
:1008B7000775495C7B017A00795A120D35E94A4B75
:1008C70060030209527547FF7548077549657B0143
:1008D7007A00795A120D35E94A4B60028024120DCD
:1008E700B77FE87E0312103A0209647547FF75481F
:1008F700077549817B017A00795A120D35E94A4B10
:1009070060047BFF80307547FF7548077549917B09
:10091700017A00795A120D35E94A4B602E7547FF67
:100927007548077549657B017A00795A120D35E9D3
:100937004A4B7BFF600B7A077974C207120DBF80A1
:100947000A120DB97FE87E0312103A055AE55AC319
:10095700940550030207DAE4F55A120DB7853D6C8A
:02096700AF3DA2
:01096900226B
:0A096A008B218A2289238C248D251D
:10097400752601755001E4F560AF60EF3395E0FE34
:10098400C3EF9525EE95245019AB21AA22A9238FF4
:10099400828E83120F6BFF74272560F8A60705600B
:1009A40080D774272525F8E4F6C200E56870597BE2
:1009B400FF7A077925D207120DBF7FC87E00121077
:1009C4003A7547FF7548067549FB7B017A00795AE9
:1009D400120D35E94A4B70307547FF754807754964
:1009E400657B017A00795A120D35E94A4B70191268
:1009F40007D7EF700512004680F5E4F55E7BFF7AB9
:100A0400077925D207120DBF7FC87E0012103A75F0
:100A140047FF7548067549FB7B017A00795A120D28
:100A240035E94A4B701A7547FF7548077549657B68
:100A3400017A00795A120D35E94A4B7003020AC84B
:100A4400E5687032E5256415452470087BFF7A0754
:100A5400799E800EE52564084524700B7BFF7A0798
:100A640079AD12002F8005E4F526806B7F2C7E0182
:100A740012103A7568017547FF7548077549BB7BC5
:100A8400017A00795A120D35E94A4B70030209AD17
:100A94007B007A007927AD251210C9E4F5687F2C14
:100AA4007E0112103A7547FF7548077549BD7B01F1
:100AB4007A00795A120D35E94A4B601B75690112A7
:100AC4000FD380130552E552C3940250030209ADBB
:0C0AD400E4F552F526F568E4F550AF2675
:010AE00022F3
:100EFC00E4F521E5219007CC93FF741A2521F582A6
:100F0C00E43400F583E0FD8FF0A47C002DFFEC357C
:100F1C00F0FE74212521F582E43400F583EFF074A2
:100F2C00212521F582E43400F583C083C082E0FDE5
:100F3C00E5219007C593FCED6CD082D083F00521A0
:050F4C00E521B407AE31
:010F5100227D
:10116A00E4FBEBFF7E0012110C24EAF582E4340161
:08117A00F583EFF00BBB07EA5F
:01118200224A
:101004007FF97E1FE4FD8F828E83E493FC74212D8F
:10101400F8A60474212DF8E6FC741A2DF582E43444
:0E10240000F583ECF00FBF00010E0DBD07D8E4
:01103200229B
:100AE100E4F595759680F5C975CA10D2B4C2CC12D9
:100AF1001004120EFC12116A7FC87E0012103A1205
:100B0100105D121183C2A712103A7FE87E03121002
:100B11003AD2A712103A12103A12103AC2A7D2A929
:100B2100D2AC43AF01D2AF12103A12103A120046C2
:100B3100EF4E700343C7201207D77B017A0079007B
:100B410012000E755D0175C13E7F647E0012103A80
:100B51003004187B017A0079287811E6FD1210A67D
:100B6100E47810F608F6C204756B013006D87813E4
:100B7100E6F56F7B017A017986FD7C0012096A7FB7
:100B8100C87E0012103A7812E6FC08E6FD656F7027
:100B910001EC60167486256FF9E43401FA7B01C318
:100BA100ED956FFDEC9EFC12096AE4F5607813E6A1
:100BB1002401FF18E436FEAD60ED3395E0FCC3ED92
:100BC1009FEC9E5017AF60EF3395E0FE74862FF5D2
:100BD1008274013EF583E4F0056080D1E47812F679
:070BE10008F6C206020B47F3
:100CB500020AE1E493A3F8E493A34003F68001F26A
:100CC50008DFF48029E493A3F85407240CC8C33340
:100CD500C4540F4420C8834004F456800146F6DF0F
:100CE500E4800B0102040810204080900331E47E6B
:100CF500019360BCA3FF543F30E509541FFEE49304
:100D0500A360010ECF54C025E060A840B8E493A3CA
:100D1500FAE493A3F8E493A3C8C582C8CAC583CAF5
:100D2500F0A3C8C582C8CAC583CADFE9DEE780BEAD
:010594000066
:100F5200BB010689828A83E0225002E722BBFE029D
:090F6200E32289828A83E49322D0
:100F6B00BB010CE58229F582E5833AF583E022503B
:100F7B0006E92582F8E622BBFE06E92582F8E22285
:0D0F8B00E58229F582E5833AF583E493229F
:100D35008B448A458946AB47AA48A949120F526098
:100D450063AB44AA45A946120F52605F85474A85A1
:100D5500484B85494C8B4D8A4E894FAB4AAA4BA9C6
:100D65004C120F52FF6023AB4DAA4EA94F120F52E2
:100D75006F701704254CF54CE4354BF54B74012584
:100D85004FF54FE4354EF54E80D1AB4AAA4BA94CF1
:100D9500120F527002800D74012546F546E4354563
:100DA500F545809DAB44AA45A946227B007A00798A
:020DB50000221A
:00000001FF
