:03000000020CCE21
:0C0CCE00787FE4F6D8FD75817D020D15DD
:100599004F4B0041540D0A0041542B4950523D39EB
:1005A9003630300D0A00415426570D0A0041542BAC
:1005B9005149484541443D300D0A0041542B4350AF
:1005C900494E3F0D0A0041542B51434349440D0AFA
:1005D9000041542B435245473F0D0A002B435245D6
:1005E900473A20302C300041542B43475245473F6E
:1005F9000D0A002B43475245473A20302C30004121
:10060900542B51494647434E543D300D0A0041543D
:100619002B5149435347503D312C22434D4E4554AC
:10062900220D0A0041542B51495245474150500D62
:100639000A0041542B514944454143540D0A004194
:10064900542B51494143540D0A0041542B51494CF3
:100659004F4349500D0A0041542B51494C4F4349CE
:10066900500031302E0041542B5149444E534950CA
:100679003D300D0A0041542B5149444E5349503DD8
:10068900310D0A0041542B5153434C4B3D300D0A57
:100699000041542B51495344453D300D0A00415402
:1006A9002B51494F50454E3D22544350222C226B29
:1006B9003171373333383634352E6961736B2E69AE
:1006C9006E222C223330313632220D0A0041542B4E
:1006D90051494F50454E3D22544350222C2232322B
:1006E900322E37362E3135312E3636222C223639F6
:1006F9003030220D0A00434F4E4E454354204F4B94
:1007090000434F4E4E454354204F4B0D0A0045526E
:10071900524F520041542B51494D55583F0D0A0033
:1007290041542B5149535441540D0A002B51494D01
:1007390055583A20310041542B51494D55583D30B7
:100749000D0A00495020494E4954414C0049502056
:1007590053544154555300495020434C4F5345007D
:1007690054435020434F4E4E454354494E47004150
:10077900542B5149434C4F53450D0A00414C5245A6
:1007890041445920434F4E4E45435400434F4E4E2A
:10079900454354204641494C0041542B5149534546
:1007A9004E443D32310D0A0041542B514953454EB7
:1007B900443D380D0A0041542B514953454E443D9F
:1007C90033310D0A003E0053454E44204F4B001172
:1007D9001A1E3134424B1317232A3B404931323315
:0107E90034DB
:100335005A00004943434944000000000000000002
:1003450000000000000000000000000000026E0038
:1003550000612C005A0000000000000000000000B1
:100365000000000000000000000000000000000088
:100375000000000000000000000000000000000078
:100385000000000000000000000000000000000068
:100395000000000000000000000000000000000058
:1003A5000000000000000000000000000000000048
:1003B5000000000000000000000000000000000038
:1003C5000000000000000000000000000000000028
:1003D5000000000000000000000000000000000018
:1003E5000000000000000000000000000000000008
:1003F50000000000000000000000000000000000F8
:1004050000000000000000000000000000000000E7
:1004150000000000000000000000000000000000D7
:1004250000000000000000000000000000000000C7
:1004350000000000000000000000000000000000B7
:1004450000000000000000000000000000000000A7
:100455000000000000000000000000000000000097
:100465000000000000000000000000000000000087
:100475000000000000000000000000000000000077
:100485000002640000016A00016100016000016D65
:1004950000017600017300016600016B00015E003A
:1004A500017500016700017900017C00015F000111
:1004B5006900017D05015D00016800017A00017296
:1004C50000017400015C00017800017700017B00E8
:1004D500C100C103C101C102C104C105026200001E
:1004E500027000000210000002120000016C0060A2
:1004F5003201B8FE0102FE0000000000000000000D
:1005050000000000000000000000000000000000E6
:1005150000000000000000000000000000000000D6
:10052500000000000060320028FE0102FE0000000D
:1005350000000000000000000000000000000000B6
:1005450000000000000000000000000000000000A6
:10055500000000000000000000000060320186FE7F
:100565000000000000000000000000000000000086
:100575000000000000000000000000000000000076
:100585000000000000000000000000000000000066
:0305950000C1069C
:04111100AB07AA0678
:10111500AF02AE0375C78375C5028FC38EC48DC27A
:0B112500C2AF75C65A75C6A500D2AF58
:01113000229C
:04117100AD07AC0614
:10117500AF04AE0575C78375C5038FC38EC4C2AFF3
:0911850075C65A75C6A500D2AF6B
:01118E00223E
:04113100AD07AC0654
:10113500AF04AE0575C78375C5018FC38EC4C2AF35
:0B11450075C65A75C6A500AFC2D2AF38
:01115000227C
:1010A800E4FDFCC3ED9FEC9E50070DBD00010C80D4
:1010B800F2E4FCFDC3ED9FEC9E50070DBD00010C52
:0210C80080F2B4
:0110CA002203
:071058007FE87E0312105F28
:10105F0075C13EE4FDFCC3ED9FEC9E5015E4FBFA19
:10106F000BBB00010ABA03F8BBE8F50DBD00010C7C
:02107F0080E40B
:01108100224C
:021151008F4BC2
:10115300E4F54CE54CC3954B5013E4F912105812C7
:0D116300105F75C13E09B914F3054C80E61C
:01117000225C
:100FF800E4FFEFC3956FE4956E501B745A2FF5828A
:10100800E43400F583E4F074282FF582E43400F525
:1010180083E4F00F80DCE4F56EF56F7810F608F6DF
:0110280022A5
:100FBD00C2A77FE87E0312105F75C13ED2A7121043
:100FCD005F12105F12105F75C13E12105F12105F3D
:100FDD0075C13EC2A712105F12105F75C13E12108F
:0B0FED005F75C13E12105F75C13E220F
:080003008F993099FDC299228A
:10000E00120F77FF600C120003740129F9E43AFA1B
:02001E0080EE72
:0100200022BD
:0610CB008B488A49894AA6
:1010D100E4FEEEC39D5015AB48AA49A94A8E82751C
:0C10E1008300120F90FF1200030E80E647
:0110ED0022E0
:0B11B9008F9BE59A30E1FB539AFD226A
:09002600120FF8AB4BAA4CA94DD6
:10002F00120F77FF600C1211B9740129F9E43AFA33
:02003F0080EE51
:01004100229C
:0610EE008B478A48894986
:1010F400E4FEEEC39D5015AB47AA48A9498E8275FC
:0C1104008300120F90FF1211B90E80E65C
:0111100022BC
:03000B00020C0DD7
:100C0D00C0E0C0D0056730031D0563E563700205C4
:100C1D0062C39414E5629400400CC20375620075C2
:100C2D006300D200D20630051B0571E57170020517
:100C3D0070C39414E5709400400AC2057570007578
:100C4D007100D204D3E5659400E56494004008E595
:100C5D0065156570021564E577B4010C757700753F
:100C6D006700757900757C00E55C6401600AE577C5
:100C7D007041E5786401703BE567C39464403D7550
:100C8D0067000579E579943C4032757900057CE57E
:100C9D007CB4020DE55CB40108757C00755C0080C8
:100CAD000DE57CB40316E5777012F57CF57743C737
:100CBD00208009756700757900757C00D0D0D0E073
:010CCD0032F4
:03002300020EC307
:100EC300C0E0C083C082C0D075D008309845C298B6
:100ED3007812E6FE08E6FF24B8F58274013EF58336
:100EE300E599F074862FF58274013EF583E599F058
:100EF30006E618700106D203B2B47562007563008A
:100F0300D37813E6942C18E694014009760008760A
:0E0F1300008002C299D0D0D082D083D0E032CC
:03004300020E505A
:100E5000C0E0C083C082C0D075D008E59A30E05AA7
:100E6000539AFE7810E6FE08E62428F58274003EC8
:100E7000F583E59BF006E618700106745A256FF5B8
:100E8000827400356EF583E59BF0056FE56F7002A7
:100E9000056ED205757000757100D3942CE56E94C3
:100EA000014006756E00756F00D37811E6942C181A
:100EB000E6940140057600087600D0D0D082D08339
:030EC000D0E0324D
:10108200759850538EBF538EFE53890F758BE8753A
:101092008DFFC2ABD28E759A50438E0475D7E07520
:0610A200D6FE438E102271
:1011A800538E7F5389F0E4F58A758CDCC28DD28C1E
:0111B8002214
:080DDC007BFF7A06793BC20798
:060DE4008B4B8A4C894D87
:100DEA00E4F54EF54F120026C2047564077565D006
:100DFA007FC87E0012105FE54FC39402503D75C153
:100E0A003E200406E565456470EDC2047553FF751E
:100E1A0054057555997B017A00795A120D5AE94A97
:100E2A004B6005754E018013E565456470C9120073
:100E3A00267564077565D0054F80BCC20420070378
:050E4A00120FF8AF4E8D
:010E4F002280
:10004600E4F547F548F549F54AE56A75F00584AFE4
:10005600F0121151056AE56AC394054006E4F56A93
:1000660043C7207BFF7A05799CC207120DE48F47B0
:100076007BFF7A05799CC207120DE48F47E547603E
:100086000D7BFF7A0579A1C207120DE48F477F64C5
:100096007E0012105FE547600D7BFF7A0579AFC2DF
:1000A60007120DE48F477F647E0012105FE54760FC
:1000B6000D7BFF7A0579B6C207120DE48F477F6480
:1000C6007E0012105FE547601F7BFF7A0579C4C288
:1000D60007120DE48F47EF700F0561E561C39405C4
:1000E60040E7E4F56102004F7F647E0012105FE591
:1000F60047604BE4F5617BFF7A0579CFD207120D95
:10010600E4EF700E0561E561C3940340E9E4F5612F
:10011600802CE4F54874652548F582E43400F583BF
:10012600E0FF74052548F582E43400F583EFF00519
:1001360048E548B414DFE4900019F0120FF8E547DB
:1001460060417BFF7A0579DAC207120DE48F47EF2B
:10015600700B0560E560C3940640E780207553FF89
:100166007554057555E57B017A00795A120D5AE9E1
:100176004A4B600F0560E560C3940640C5E4F56030
:1001860002004F7F647E0012105FE547603C7BFFF4
:100196007A0579F0C207120DE4EF700B0560E56091
:1001A600C3940640E980207553FF7554057555FCC8
:1001B6007B017A00795A120D5AE94A4B600C0560A8
:1001C600E560C3940640C7E4F5607F147E00121014
:1001D6005FE547600D7BFF7A067908C207120DE4DA
:1001E6008F47E547600D7BFF7A067917C207120D28
:1001F600E48F477F147E0012105FE54760227BFF85
:100206007A06792DD207120DE48F47EF7012056D2D
:10021600E56DC3940C40E7E4F56D120DDC02004F6A
:100226007FC87E0012105FE54760607BFF7A067923
:1002360048C207120DE48F47EF705005767FE87EBF
:100246000312105FE576C394024033E576940450BA
:100256002D7BFF7A06793BD207120DE412105875F2
:10026600C13E12105F12105F12105F75C13E7BFF18
:100276007A06792DD207120DE412105880ADE57674
:10028600C3940440A6E4F57602004FE547605A128F
:100296000FF87BFF7A06795312002F121058C2000E
:1002A60075C13E7553FF7554067555607B017A001E
:1002B600795A120D5AE94A4B6005120FF8802A0541
:1002C600737553FF75540675556B7B017A00795A21
:1002D600120D5AE94A4B7011E573C3940540B0E418
:1002E600F573120DDCEF02004FE547600D7BFF7AD8
:1002F60006796FC207120DE48F477FC87E00121081
:100306005FE547600D7BFF7A06798DC207120DE423
:100316008F477FC87E0012105FE547600D7BFF7A2E
:0E03260006799AC207120DE48F47AF477E009A
:0103340022A6
:1007EA00E4F547120FF87BFF7A0679D612002F122A
:1007FA001058C20075C13E7553FF7554067555FFF2
:10080A007B017A00795A120D5AE94A4B60207BFF24
:10081A007A07790A12000E7B017A0079007D191293
:10082A0010CB120FF8E4F566754701020982755379
:10083A00FF7554077555177B017A00795A120D5ABC
:10084A00E94A4B70030209107BFF7A07791DD20728
:10085A00120DE47FC87E0012105F7BFF7A077929A8
:10086A00D207120DE47553FF7554077555357B0190
:10087A007A00795A120D5AE94A4B60167BFF7A07B9
:10088A00793FC207120DE47BFF7A077929D2071252
:10089A000DE47553FF75540775554C7B017A007941
:1008AA005A120D5AE94A4B60030209707553FF75D3
:1008BA0054077555567B017A00795A120D5AE94A3E
:1008CA004B60030209707553FF7554077555607BB9
:1008DA00017A00795A120D5AE94A4B6003020970EB
:1008EA007553FF7554077555697B017A00795A1259
:1008FA000D5AE94A4B60028024120DDC7FE87E0320
:10090A0012105F0209827553FF7554077555857B6E
:10091A00017A00795A120D5AE94A4B60047BFF802A
:10092A00307553FF7554077555957B017A00795ACE
:10093A00120D5AE94A4B602E7553FF7554077555C7
:10094A00697B017A00795A120D5AE94A4B7BFF609A
:10095A000B7A077978C207120DE4800A120DDE7F3E
:10096A00E87E0312105F0566E566C394055003022C
:0D097A0007EDE4F566120DDC854778AF4708
:01098700224D
:0A0988008B218A2289238C248D25FF
:10099200752601755C01E4F56CAF6CEF3395E0FEF2
:1009A200C3EF9525EE95245019AB21AA22A9238FD6
:1009B200828E83120F90FF7427256CF8A607056CB0
:1009C20080D774272525F8E4F6C200E57470597BB8
:1009D200FF7A077929D207120DE47FC87E00121030
:1009E2005F7553FF7554067555FF7B017A00795A7E
:1009F200120D5AE94A4B70307553FF7554077555FD
:100A0200697B017A00795A120D5AE94A4B70191220
:100A120007EAEF700512004680F5E4F56A7BFF7A7B
:100A2200077929D207120DE47FC87E0012105F7584
:100A320053FF7554067555FF7B017A00795A120DE2
:100A42005AE94A4B701A7553FF7554077555697BFD
:100A5200017A00795A120D5AE94A4B7003020AF6DA
:100A6200E5747042E5256415452470087BFF7A071A
:100A720079A2801EE5256408452470087BFF7A0769
:100A820079B1800EE525641F4524700B7BFF7A0740
:100A920079BF12002F8005E4F526806B7F2C7E0142
:100AA20012105F7574017553FF7554077555CE7B2F
:100AB200017A00795A120D5AE94A4B70030209CBA6
:100AC2007B007A007927AD251210EEE4F5747F2CB5
:100AD2007E0112105F7553FF7554077555D07B0167
:100AE2007A00795A120D5AE94A4B601B7575011248
:100AF2000FF88013055EE55EC3940250030209CB32
:0C0B0200E4F55EF526F574E4F55CAF2622
:010B0E0022C4
:100F2100E4F521E5219007DF93FF741A2521F5826D
:100F3100E43400F583E0FD8FF0A47C002DFFEC3557
:100F4100F0FE74212521F582E43400F583EFF0747D
:100F5100212521F582E43400F583C083C082E0FDC0
:100F6100E5219007D893FCED6CD082D083F0052168
:050F7100E521B407AE0C
:010F76002258
:10118F00E4FBEBFF7E0012113124EAF582E4340117
:08119F00F583EFF00BBB07EA3A
:0111A7002225
:101029007FF97E1FE4FD8F828E83E493FC74212D6A
:10103900F8A60474212DF8E6FC741A2DF582E4341F
:0E10490000F583ECF00FBF00010E0DBD07D8BF
:011057002276
:100B0F00E4F595759680F5C975CA10D2B4C2CC12AA
:100B1F001029120F2112118F7FC87E0012105F1241
:100B2F0010821211A8C2A712105F7FE87E03121065
:100B3F005FD2A712105F12105F12105FC2A7D2A967
:100B4F00D2AC43AF01D2AF12105F12105F1200464A
:100B5F00EF4E700343C7201207EA75690175C13E56
:100B6F007F647E0012105F3004187B017A007928B1
:100B7F007811E6FD1210CBE47810F608F6C2047572
:100B8F0077013006D87813E6F57B7B017A017986F9
:100B9F00FD7C001209887FC87E0012105F7812E674
:100BAF00FC08E6FD657B7001EC60167486257BF909
:100BBF00E43401FA7B01C3ED957BFDEC9EFC120939
:100BCF0088E4F56C7813E62401FF18E436FEAD6C6B
:100BDF00ED3395E0FCC3ED9FEC9E5017AF6CEF33F8
:100BEF0095E0FE74862FF58274013EF583E4F005DF
:0E0BFF006C80D1E47812F608F6C206020B6C88
:100CDA00020B0FE493A3F8E493A34003F68001F216
:100CEA0008DFF48029E493A3F85407240CC8C3331B
:100CFA00C4540F4420C8834004F456800146F6DFEA
:100D0A00E4800B0102040810204080900335E47E41
:100D1A00019360BCA3FF543F30E509541FFEE493DE
:100D2A00A360010ECF54C025E060A840B8E493A3A5
:100D3A00FAE493A3F8E493A3C8C582C8CAC583CAD0
:100D4A00F0A3C8C582C8CAC583CADFE9DEE780BE88
:010598000062
:100F7700BB010689828A83E0225002E722BBFE0278
:090F8700E32289828A83E49322AB
:100F9000BB010CE58229F582E5833AF583E0225016
:100FA00006E92582F8E622BBFE06E92582F8E22260
:0D0FB000E58229F582E5833AF583E493227A
:100D5A008B508A518952AB53AA54A955120F776006
:100D6A0063AB50AA51A952120F77605F855356851B
:100D7A0054578555588B598A5A895BAB56AA57A935
:100D8A0058120F77FF6023AB59AA5AA95B120F7743
:100D9A006F7017042558F558E43557F5577401252F
:100DAA005BF55BE4355AF55A80D1AB56AA57A95878
:100DBA00120F777002800D74012552F552E43551F5
:100DCA00F551809DAB50AA51A952227B007A007935
:020DDA000022F5
:00000001FF
