:03000000020CC827
:0C0CC800787FE4F6D8FD758171020D0FF5
:100595004F4B0041540D0A0041542B4950523D39EF
:1005A5003630300D0A00415426570D0A0041542BB0
:1005B5005149484541443D300D0A0041542B4350B3
:1005C500494E3F0D0A0041542B51434349440D0AFE
:1005D5000041542B435245473F0D0A002B435245DA
:1005E500473A20302C300041542B43475245473F72
:1005F5000D0A002B43475245473A20302C30004125
:10060500542B51494647434E543D300D0A00415441
:100615002B5149435347503D312C22434D4E4554B0
:10062500220D0A0041542B51495245474150500D66
:100635000A0041542B514944454143540D0A004198
:10064500542B51494143540D0A0041542B51494CF7
:100655004F4349500D0A0041542B51494C4F4349D2
:10066500500031302E0041542B5149444E534950CE
:100675003D300D0A0041542B5149444E5349503DDC
:10068500310D0A0041542B5153434C4B3D300D0A5B
:100695000041542B51495344453D300D0A00415406
:1006A5002B51494F50454E3D22544350222C226B2D
:1006B5003171373333383634352E6961736B2E69B2
:1006C5006E222C223330313632220D0A0041542B52
:1006D50051494F50454E3D22544350222C2232322F
:1006E500322E37362E3135312E3636222C223639FA
:1006F5003030220D0A00434F4E4E454354204F4B98
:1007050000434F4E4E454354204F4B0D0A00455272
:10071500524F520041542B51494D55583F0D0A0037
:1007250041542B5149535441540D0A002B51494D05
:1007350055583A20310041542B51494D55583D30BB
:100745000D0A00495020494E4954414C004950205A
:1007550053544154555300495020434C4F53450081
:1007650054435020434F4E4E454354494E47004154
:10077500542B5149434C4F53450D0A00414C5245AA
:1007850041445920434F4E4E45435400434F4E4E2E
:10079500454354204641494C0041542B514953454A
:1007A5004E443D32310D0A0041542B514953454EBB
:1007B500443D380D0A0041542B514953454E443DA3
:1007C50033310D0A003E0053454E44204F4B001176
:1007D5001A1E3134424B1317232A3B404931323319
:0107E50034DF
:100331005A00004943434944000000000000000006
:100341000000000000000000000000000002620048
:1003510000612C005A0000000000000000000000B5
:10036100000000000000000000000000000000008C
:10037100000000000000000000000000000000007C
:10038100000000000000000000000000000000006C
:10039100000000000000000000000000000000005C
:1003A100000000000000000000000000000000004C
:1003B100000000000000000000000000000000003C
:1003C100000000000000000000000000000000002C
:1003D100000000000000000000000000000000001C
:1003E100000000000000000000000000000000000C
:1003F10000000000000000000000000000000000FC
:1004010000000000000000000000000000000000EB
:1004110000000000000000000000000000000000DB
:1004210000000000000000000000000000000000CB
:1004310000000000000000000000000000000000BB
:1004410000000000000000000000000000000000AB
:10045100000000000000000000000000000000009B
:10046100000000000000000000000000000000008B
:10047100000000000000000000000000000000007B
:100481000002580000015E000155000154000161A5
:1004910000016A00016700015A00015F000152007A
:1004A100016900015B00016D000170000153000151
:1004B1005D00017105015100015C00016E000166E2
:1004C10000016800015000016C00016B00016F0028
:1004D100C100C103C101C102C104C105025600002E
:1004E10002640000021000000212000001600060BE
:1004F1003201B8FE0102FE00000000000000000011
:1005010000000000000000000000000000000000EA
:1005110000000000000000000000000000000000DA
:10052100000000000060320028FE0102FE00000011
:1005310000000000000000000000000000000000BA
:1005410000000000000000000000000000000000AA
:10055100000000000000000000000060320186FE83
:10056100000000000000000000000000000000008A
:10057100000000000000000000000000000000007A
:10058100000000000000000000000000000000006A
:0305910000C106A0
:04110B00AB07AA067E
:10110F00AF02AE0375C78375C5028FC38EC48DC280
:0B111F00C2AF75C65A75C6A500D2AF5E
:01112A0022A2
:04116B00AD07AC061A
:10116F00AF04AE0575C78375C5038FC38EC4C2AFF9
:09117F0075C65A75C6A500D2AF71
:011188002244
:04112B00AD07AC065A
:10112F00AF04AE0575C78375C5018FC38EC4C2AF3B
:0B113F0075C65A75C6A500AFC2D2AF3E
:01114A002282
:1010A200E4FDFCC3ED9FEC9E50070DBD00010C80DA
:1010B200F2E4FCFDC3ED9FEC9E50070DBD00010C58
:0210C20080F2BA
:0110C4002209
:071052007FE87E0312105934
:1010590075C13EE4FDFCC3ED9FEC9E5015E4FBFA1F
:101069000BBB00010ABA03F8BBE8F50DBD00010C82
:0210790080E411
:01107B002252
:02114B008F3FD4
:10114D00E4F540E540C3953F5013E4F912105212F7
:0D115D00105975C13E09B914F3054080E634
:01116A002262
:100FF200E4FFEFC39563E49562501B745A2FF582A8
:10100200E43400F583E4F074282FF582E43400F52B
:1010120083E4F00F80DCE4F562F5637810F608F6FD
:0110220022AB
:100FB700C2A77FE87E0312105975C13ED2A712104F
:100FC7005912105912105975C13E12105912105961
:100FD70075C13EC2A712105912105975C13E1210A1
:0B0FE7005975C13E12105975C13E2221
:080003008F993099FDC299228A
:10000E00120F71FF600C120003740129F9E43AFA21
:02001E0080EE72
:0100200022BD
:0610C5008B218A22892321
:1010CB00E4FEEEC39D5015AB21AA22A9238E827597
:0C10DB008300120F8AFF1200030E80E653
:0110E70022E6
:0B11B3008F9BE59A30E1FB539AFD2270
:09002600120FF2AB3FAA40A94100
:10002F00120F71FF600C1211B3740129F9E43AFA3F
:02003F0080EE51
:01004100229C
:0610E8008B3D8A3E893FAA
:1010EE00E4FEEEC39D5015AB3DAA3EA93F8E827520
:0C10FE008300120F8AFF1211B30E80E66F
:01110A0022C2
:03000B00020C07DD
:100C0700C0E0C0D0055B30031D0557E557700205EE
:100C170056C39414E5569400400CC20375560075EC
:100C27005700D200D20630051B0565E56570020541
:100C370064C39414E5649400400AC20575640075A2
:100C47006500D204D3E5599400E55894004008E5BF
:100C570059155970021558E56BB4010C756B007581
:100C67005B00756D00757000E5506401600AE56B07
:100C77007041E56C6401703BE55BC39464403D756E
:100C87005B00056DE56D943C4032756D000570E5C0
:100C970070B4020DE550B4010875700075500080FE
:100CA7000DE570B40316E56B7012F570F56B43C76D
:100CB700208009755B00756D00757000D0D0D0E09D
:010CC70032FA
:03002300020EBD0D
:100EBD00C0E0C083C082C0D075D008309845C298BC
:100ECD007812E6FE08E6FF24B8F58274013EF5833C
:100EDD00E599F074862FF58274013EF583E599F05E
:100EED0006E618700106D203B2B4755600755700A8
:100EFD00D37813E6942C18E6940140097600087611
:0E0F0D00008002C299D0D0D082D083D0E032D2
:03004300020E4A60
:100E4A00C0E0C083C082C0D075D008E59A30E05AAD
:100E5A00539AFE7810E6FE08E62428F58274003ECE
:100E6A00F583E59BF006E618700106745A2563F5CA
:100E7A008274003562F583E59BF00563E5637002D1
:100E8A000562D205756400756500D3942CE56294F9
:100E9A00014006756200756300D37811E6942C1838
:100EAA00E6940140057600087600D0D0D082D0833F
:030EBA00D0E03253
:10107C00759850538EBF538EFE53890F758BE87540
:10108C008DFFC2ABD28E759A50438E0475D7E07526
:06109C00D6FE438E102277
:1011A200538E7F5389F0E4F58A758CDCC28DD28C24
:0111B200221A
:080DD6007BFF7A067937C207A2
:060DDE008B3F8A408941B1
:100DE400E4F542F543120026C2047558077559D03C
:100DF4007FC87E00121059E543C39402503D75C16B
:100E04003E200406E559455870EDC2047547FF7548
:100E140048057549957B017A00795A120D54E94ABF
:100E24004B60057542018013E559455870C912009D
:100E3400267558077559D0054380BCC204200703A2
:050E4400120FF2AF42A5
:010E49002286
:10004600E4F53DF53EE55E75F00584AFF012114B23
:10005600055EE55EC394054006E4F55E43C7207B76
:10006600FF7A057998C207120DDE8F3D7BFF7A0570
:100076007998C207120DDE8F3DE53D600D7BFF7A54
:1000860005799DC207120DDE8F3D7F647E0012103A
:1000960059E53D600D7BFF7A0579ABC207120DDE8F
:1000A6008F3D7F647E00121059E53D600D7BFF7A1F
:1000B6000579B2C207120DDE8F3D7F647E001210F5
:1000C60059E53D601F7BFF7A0579C0C207120DDE38
:1000D6008F3DEF700F0555E555C3940540E7E4F5F0
:1000E6005502004B7F647E00121059E53D604BE4DB
:1000F600F5557BFF7A0579CBD207120DDEEF700E30
:100106000555E555C3940340E9E4F555802CE4F51F
:100116003E7465253EF582E43400F583E0FF740500
:10012600253EF582E43400F583EFF0053EE53EB466
:1001360014DFE4900019F0120FF2E53D60417BFFF9
:100146007A0579D6C207120DDE8F3DEF700B055486
:10015600E554C3940640E780207547FF754805754A
:1001660049E17B017A00795A120D54E94A4B600F36
:100176000554E554C3940640C5E4F55402004B7F8C
:10018600647E00121059E53D603C7BFF7A0579ECF0
:10019600C207120DDEEF700B0554E554C3940640FA
:1001A600E980207547FF7548057549F87B017A0097
:1001B600795A120D54E94A4B600C0554E554C39420
:1001C6000640C7E4F5547F147E00121059E53D60E1
:1001D6000D7BFF7A067904C207120DDE8F3DE53DE1
:1001E600600D7BFF7A067913C207120DDE8F3D7F05
:1001F600147E00121059E53D60227BFF7A067929AC
:10020600D207120DDE8F3DEF70120561E561C394D2
:100216000C40E7E4F561120DD602004B7FC87E0064
:10022600121059E53D60607BFF7A067944C20712D9
:100236000DDE8F3DEF7050056A7FE87E0312105980
:10024600E56AC394024033E56A9404502D7BFF7A35
:10025600067937D207120DDE12105275C13E121002
:100266005912105912105975C13E7BFF7A06792929
:10027600D207120DDE12105280ADE56AC394044017
:10028600A6E4F56A02004BE53D605A120FF27BFFC9
:100296007A06794F12002F121052C20075C13E75B0
:1002A60047FF75480675495C7B017A00795A120D3D
:1002B60054E94A4B6005120FF2802A05677547FF1D
:1002C6007548067549677B017A00795A120D54E91B
:1002D6004A4B7011E567C3940540B0E4F567120D0B
:1002E600D6EF02004BE53D600D7BFF7A06796BC2C7
:1002F60007120DDE8F3D7FC87E00121059E53D6066
:100306000D7BFF7A067989C207120DDE8F3D7FC805
:100316007E00121059E53D600D7BFF7A067996C284
:0A03260007120DDE8F3DAF3D7E0093
:0103300022AA
:1007E600E4F53D120FF27BFF7A0679D212002F1242
:1007F6001052C20075C13E7547FF7548067549FB24
:100806007B017A00795A120D54E94A4B601E7BFF30
:100816007A07790612000E7B017A00790012000E23
:10082600120FF2E4F55A753D0102097C7547FF7512
:1008360048077549137B017A00795A120D54E94A23
:100846004B700302090A7BFF7A077919D207120D4A
:10085600DE7FC87E001210597BFF7A077925D20702
:10086600120DDE7547FF7548077549317B017A0021
:10087600795A120D54E94A4B60167BFF7A07793B89
:10088600C207120DDE7BFF7A077925D207120DDE2D
:100896007547FF7548077549487B017A00795A12F2
:1008A6000D54E94A4B600302096A7547FF7548070C
:1008B6007549527B017A00795A120D54E94A4B6008
:1008C6000302096A7547FF75480775495C7B017A1B
:1008D60000795A120D54E94A4B600302096A7547BA
:1008E600FF7548077549657B017A00795A120D54E0
:1008F600E94A4B60028024120DD67FE87E0312106F
:100906005902097C7547FF7548077549817B017A4D
:1009160000795A120D54E94A4B60047BFF8030750A
:1009260047FF7548077549917B017A00795A120D80
:1009360054E94A4B602E7547FF7548077549657B34
:10094600017A00795A120D54E94A4B7BFF600B7A03
:10095600077974C207120DDE800A120DD87FE87E71
:1009660003121059055AE55AC3940550030207E9C4
:0B097600E4F55A120DD6853D6CAF3D34
:010981002253
:0A0982008B218A2289238C248D2505
:10098C00752601755001E4F560AF60EF3395E0FE1C
:10099C00C3EF9525EE95245019AB21AA22A9238FDC
:1009AC00828E83120F8AFF74272560F8A6070560D4
:1009BC0080D774272525F8E4F6C200E56870597BCA
:1009CC00FF7A077925D207120DDE7FC87E00121040
:1009DC00597547FF7548067549FB7B017A00795AB2
:1009EC00120D54E94A4B70307547FF75480775492D
:1009FC00657B017A00795A120D54E94A4B70191231
:100A0C0007E6EF700512004680F5E4F55E7BFF7A91
:100A1C00077925D207120DDE7FC87E00121059759A
:100A2C0047FF7548067549FB7B017A00795A120D10
:100A3C0054E94A4B701A7547FF7548077549657B31
:100A4C00017A00795A120D54E94A4B7003020AF0EC
:100A5C00E5687042E5256415452470087BFF7A072C
:100A6C00799E801EE5256408452470087BFF7A0773
:100A7C0079AD800EE525641F4524700B7BFF7A074A
:100A8C0079BB12002F8005E4F526806B7F2C7E014C
:100A9C001210597568017547FF7548077549CA7B6F
:100AAC00017A00795A120D54E94A4B70030209C5B8
:100ABC007B007A007927AD251210E8E4F5687F2CCD
:100ACC007E011210597547FF7548077549CC7B019B
:100ADC007A00795A120D54E94A4B601B7569011260
:100AEC000FF280130552E552C3940250030209C55C
:0C0AFC00E4F552F526F568E4F550AF264D
:010B080022CA
:100F1B00E4F521E5219007DB93FF741A2521F58277
:100F2B00E43400F583E0FD8FF0A47C002DFFEC355D
:100F3B00F0FE74212521F582E43400F583EFF07483
:100F4B00212521F582E43400F583C083C082E0FDC6
:100F5B00E5219007D493FCED6CD082D083F0052172
:050F6B00E521B407AE12
:010F7000225E
:10118900E4FBEBFF7E0012112B24EAF582E4340123
:08119900F583EFF00BBB07EA40
:0111A100222B
:101023007FF97E1FE4FD8F828E83E493FC74212D70
:10103300F8A60474212DF8E6FC741A2DF582E43425
:0E10430000F583ECF00FBF00010E0DBD07D8C5
:01105100227C
:100B0900E4F595759680F5C975CA10D2B4C2CC12B0
:100B19001023120F1B1211897FC87E00121059125F
:100B2900107C1211A2C2A71210597FE87E0312107D
:100B390059D2A7121059121059121059C2A7D2A985
:100B4900D2AC43AF01D2AF1210591210591200465C
:100B5900EF4E700343C7201207E6755D0175C13E6C
:100B69007F647E001210593004187B017A007928BD
:100B79007811E6FD1210C5E47810F608F6C204757E
:100B89006B013006D87813E6F56F7B017A01798617
:100B9900FD7C001209827FC87E001210597812E686
:100BA900FC08E6FD656F7001EC60167486256FF927
:100BB900E43401FA7B01C3ED956FFDEC9EFC12094B
:100BC90082E4F5607813E62401FF18E436FEAD608F
:100BD900ED3395E0FCC3ED9FEC9E5017AF60EF330A
:100BE90095E0FE74862FF58274013EF583E4F005E5
:0E0BF9006080D1E47812F608F6C206020B66A0
:100CD400020B09E493A3F8E493A34003F68001F222
:100CE40008DFF48029E493A3F85407240CC8C33321
:100CF400C4540F4420C8834004F456800146F6DFF0
:100D0400E4800B0102040810204080900331E47E4B
:100D1400019360BCA3FF543F30E509541FFEE493E4
:100D2400A360010ECF54C025E060A840B8E493A3AB
:100D3400FAE493A3F8E493A3C8C582C8CAC583CAD6
:100D4400F0A3C8C582C8CAC583CADFE9DEE780BE8E
:010594000066
:100F7100BB010689828A83E0225002E722BBFE027E
:090F8100E32289828A83E49322B1
:100F8A00BB010CE58229F582E5833AF583E022501C
:100F9A0006E92582F8E622BBFE06E92582F8E22266
:0D0FAA00E58229F582E5833AF583E4932280
:100D54008B448A458946AB47AA48A949120F71605A
:100D640063AB44AA45A946120F71605F85474A8563
:100D7400484B85494C8B4D8A4E894FAB4AAA4BA9A7
:100D84004C120F71FF6023AB4DAA4EA94F120F7185
:100D94006F701704254CF54CE4354BF54B74012565
:100DA4004FF54FE4354EF54E80D1AB4AAA4BA94CD2
:100DB400120F717002800D74012546F546E4354525
:100DC400F545809DAB44AA45A946227B007A00796B
:020DD4000022FB
:00000001FF
